{
  "address": "0x46a89acbadC66b2F2A9a18f3B9A5A1DfdCE7e51a",
  "abi": [
    {
      "inputs": [
        {
          "internalType": "address",
          "name": "_stone",
          "type": "address"
        },
        {
          "internalType": "address",
          "name": "_vestingStone",
          "type": "address"
        },
        {
          "internalType": "address",
          "name": "_marketing",
          "type": "address"
        },
        {
          "internalType": "address",
          "name": "_stakedStone",
          "type": "address"
        }
      ],
      "stateMutability": "nonpayable",
      "type": "constructor"
    },
    {
      "inputs": [],
      "name": "info",
      "outputs": [
        {
          "internalType": "uint256",
          "name": "totalSupply",
          "type": "uint256"
        },
        {
          "internalType": "uint256",
          "name": "nominalSupply",
          "type": "uint256"
        },
        {
          "internalType": "uint256",
          "name": "marketingSupply",
          "type": "uint256"
        },
        {
          "internalType": "uint256",
          "name": "stakingSupply",
          "type": "uint256"
        }
      ],
      "stateMutability": "view",
      "type": "function"
    },
    {
      "inputs": [],
      "name": "marketing",
      "outputs": [
        {
          "internalType": "address",
          "name": "",
          "type": "address"
        }
      ],
      "stateMutability": "view",
      "type": "function"
    },
    {
      "inputs": [],
      "name": "stakedStone",
      "outputs": [
        {
          "internalType": "contract IERC20",
          "name": "",
          "type": "address"
        }
      ],
      "stateMutability": "view",
      "type": "function"
    },
    {
      "inputs": [],
      "name": "stone",
      "outputs": [
        {
          "internalType": "contract IERC20",
          "name": "",
          "type": "address"
        }
      ],
      "stateMutability": "view",
      "type": "function"
    },
    {
      "inputs": [],
      "name": "vestingStone",
      "outputs": [
        {
          "internalType": "address",
          "name": "",
          "type": "address"
        }
      ],
      "stateMutability": "view",
      "type": "function"
    }
  ],
  "transactionHash": "0x54c866a89ce9c5abc9700baf6a19c58024f052054c9d8d2d2c761814b82a818d",
  "args": [
    "0xB49E754228bc716129E63b1a7b0b6cf27299979e",
    "0xa3A842fb8c9e1E9700a8A85348dECe08f0cBe3C4",
    "0x44021d0f12b3f8902e0fe59c988736632b04059e",
    "0xde9A09ceFF3C71b7dB80A13508D6088E50f5572c"
  ],
  "numDeployments": 1,
  "solcInputHash": "e1595cea8d704d7b3291217b47ed13f1",
  "bytecode": "0x608060405234801561001057600080fd5b506040516107b73803806107b783398101604081905261002f9161009e565b600080546001600160a01b039586166001600160a01b03199182161790915560018054948616948216949094179093556002805492851692841692909217909155600380549190931691161790556100f2565b80516001600160a01b038116811461009957600080fd5b919050565b600080600080608085870312156100b457600080fd5b6100bd85610082565b93506100cb60208601610082565b92506100d960408601610082565b91506100e760608601610082565b905092959194509250565b6106b6806101016000396000f3fe608060405234801561001057600080fd5b50600436106100675760003560e01c8063370158ea11610050578063370158ea146100d657806370529952146100fe578063d79f57881461011e57600080fd5b80630167eb851461006c5780632d3e474a146100b6575b600080fd5b60005461008c9073ffffffffffffffffffffffffffffffffffffffff1681565b60405173ffffffffffffffffffffffffffffffffffffffff90911681526020015b60405180910390f35b60025461008c9073ffffffffffffffffffffffffffffffffffffffff1681565b6100de61013e565b6040805194855260208501939093529183015260608201526080016100ad565b60035461008c9073ffffffffffffffffffffffffffffffffffffffff1681565b60015461008c9073ffffffffffffffffffffffffffffffffffffffff1681565b60008060008060008054906101000a900473ffffffffffffffffffffffffffffffffffffffff1673ffffffffffffffffffffffffffffffffffffffff166318160ddd6040518163ffffffff1660e01b815260040160206040518083038186803b1580156101aa57600080fd5b505afa1580156101be573d6000803e3d6000fd5b505050506040513d601f19601f820116820180604052508101906101e2919061054d565b93506101ec610347565b6101f69085610595565b6000546002546040517f70a0823100000000000000000000000000000000000000000000000000000000815273ffffffffffffffffffffffffffffffffffffffff918216600482015292955016906370a082319060240160206040518083038186803b15801561026557600080fd5b505afa158015610279573d6000803e3d6000fd5b505050506040513d601f19601f8201168201806040525081019061029d919061054d565b9150600360009054906101000a900473ffffffffffffffffffffffffffffffffffffffff1673ffffffffffffffffffffffffffffffffffffffff166318160ddd6040518163ffffffff1660e01b815260040160206040518083038186803b15801561030757600080fd5b505afa15801561031b573d6000803e3d6000fd5b505050506040513d601f19601f8201168201806040525081019061033f919061054d565b905090919293565b600154604080517f18160ddd000000000000000000000000000000000000000000000000000000008152905160009273ffffffffffffffffffffffffffffffffffffffff1691839183916318160ddd916004808301926020929190829003018186803b1580156103b657600080fd5b505afa1580156103ca573d6000803e3d6000fd5b505050506040513d601f19601f820116820180604052508101906103ee919061054d565b905060005b81811015610547576001546040517f4f6ccce70000000000000000000000000000000000000000000000000000000081526004810183905260009173ffffffffffffffffffffffffffffffffffffffff90811691636448be8c91871690634f6ccce79060240160206040518083038186803b15801561047157600080fd5b505afa158015610485573d6000803e3d6000fd5b505050506040513d601f19601f820116820180604052508101906104a9919061054d565b6040518263ffffffff1660e01b81526004016104c791815260200190565b60606040518083038186803b1580156104df57600080fd5b505afa1580156104f3573d6000803e3d6000fd5b505050506040513d601f19601f8201168201806040525081019061051791906105ac565b90508060400151421015610534578051610531908661062f565b94505b508061053f81610647565b9150506103f3565b50505090565b60006020828403121561055f57600080fd5b5051919050565b7f4e487b7100000000000000000000000000000000000000000000000000000000600052601160045260246000fd5b6000828210156105a7576105a7610566565b500390565b6000606082840312156105be57600080fd5b6040516060810181811067ffffffffffffffff82111715610608577f4e487b7100000000000000000000000000000000000000000000000000000000600052604160045260246000fd5b80604052508251815260208301516020820152604083015160408201528091505092915050565b6000821982111561064257610642610566565b500190565b60007fffffffffffffffffffffffffffffffffffffffffffffffffffffffffffffffff82141561067957610679610566565b506001019056fea26469706673582212208de891b523c6a0f6aa52d053eeb19c69531425062c8a3278ea5e8f9c5176a2b664736f6c63430008090033",
  "devdoc": {
    "kind": "dev",
    "methods": {},
    "version": 1
  },
  "userdoc": {
    "kind": "user",
    "methods": {},
    "version": 1
  },
  "storageLayout": {
    "storage": [
      {
        "astId": 10253,
        "contract": "contracts/misc/circulatingInfo.sol:CirculatingInfo",
        "label": "stone",
        "offset": 0,
        "slot": "0",
        "type": "t_contract(IERC20)2489"
      },
      {
        "astId": 10255,
        "contract": "contracts/misc/circulatingInfo.sol:CirculatingInfo",
        "label": "vestingStone",
        "offset": 0,
        "slot": "1",
        "type": "t_address"
      },
      {
        "astId": 10257,
        "contract": "contracts/misc/circulatingInfo.sol:CirculatingInfo",
        "label": "marketing",
        "offset": 0,
        "slot": "2",
        "type": "t_address"
      },
      {
        "astId": 10260,
        "contract": "contracts/misc/circulatingInfo.sol:CirculatingInfo",
        "label": "stakedStone",
        "offset": 0,
        "slot": "3",
        "type": "t_contract(IERC20)2489"
      }
    ],
    "types": {
      "t_address": {
        "encoding": "inplace",
        "label": "address",
        "numberOfBytes": "20"
      },
      "t_contract(IERC20)2489": {
        "encoding": "inplace",
        "label": "contract IERC20",
        "numberOfBytes": "20"
      }
    }
  }
}