{
  "address": "0x51Dead1C555Fb76755d462387766c9A0583Bf6A0",
  "abi": [
    {
      "inputs": [],
      "name": "IMAGE",
      "outputs": [
        {
          "internalType": "string",
          "name": "",
          "type": "string"
        }
      ],
      "stateMutability": "pure",
      "type": "function"
    }
  ],
  "transactionHash": "0x4f21e8833edad3caad2b12db7b8811b99a70c61fa22459ede07b33b63d441e29",
  "args": [],
  "numDeployments": 1,
  "solcInputHash": "7f605358885d3a426abd468788738e23",
  "bytecode": "0x6114ab61003a600b82828239805160001a60731461002d57634e487b7160e01b600052600060045260246000fd5b30600052607381538281f3fe73000000000000000000000000000000000000000030146080604052600436106100355760003560e01c80630506eb401461003a575b600080fd5b610042610058565b60405161004f919061007b565b60405180910390f35b6060604051806113c0016040528061138781526020016100ef6113879139905090565b600060208083528351808285015260005b818110156100a85785810183015185820160400152820161008c565b818111156100ba576000604083870101525b50601f017fffffffffffffffffffffffffffffffffffffffffffffffffffffffffffffffe01692909201604001939250505056fe3c73766720786d6c6e733d22687474703a2f2f7777772e77332e6f72672f323030302f737667222077696474683d2232363422206865696768743d22323634222076657273696f6e3d22312e3122203e203c696d61676520687265663d22646174613a696d6167652f706e673b6261736536342c6956424f5277304b47676f414141414e53556845556741414151674141414549434159414141436a396d722f414141414358424957584d41414173544141414c457745416d7077594141414141584e535230494172733463365141414141526e51553142414143786a7776385951554141413349535552425648674237647a4c6a687a4a656358784c79496a36394c644c46354748416f6555523549676948594f362f734e2f4453437a2b6233386e65474a41687935355a794a36523530494f6830503272616f794d304952545547722f69536f5467684443503866554e77304b68675a45586d716170456e68482f3531324c334b454d776179394a734c696f59356a6c6f6f39524c3862616643523148764675484857595a4b70535a324a334c305577655533755a4a4f3149597070537247676a744668476b326f45314658747051654d326c4f33782f316841483443305a41414841524541426342415141467745427745564141484152454142634241514146774542774556414148415245414263424151414677454277455641414841524541426342415141567971446b7846646f714e59376a534f4c6c735178306e42624e65684843586e72616c7579326a48497062586c476968394e6967446d74533536487563676a765876706b544e6171686651756e6e4a5867714d3766534b705336485148784a3674654b6f69716c4230317143526c744d6c594e2b4167386c767a7545326b77366a4e464c3235734f682f4850665a372f4a4f2f4c5a453666427a3878414c67494341417541674b416934414134434967414c67494341417541674b416934414134434967414c67494341417541674b416934414134434967414c67494341417541674b41792b2b44654b2b65713963374a5661323243423255327a72504a3532364c66597259366d6169504d59724e4a4b6447576f766462664c65497854585656314f304b5975484c72524b4948312f2b6c533046486d67506c656a53653958454e7776334e3049326c4a74776d787238596261315844346159667658442f6654715a4b773251784a464e4d4a64672b367a66334c77393651395a5657646c724d6174612b564a51443354352f542f694d4556754d4c75376d68345657664830513874504441417541674b416934414134434967414c67494341417541674b416934414134434967414c67494341417541674b416934414134434967414c67494341417541674b4169344141344e494b4266366f307156344a7251482f64566e363874646e34676b746f7670554269544f717a4a4a7561376a67764648494e746739615230547a4f6f366e43667158334a3754436d4435744c3130474b654837726e76522f586b44497254536a494f7068684c6b2b334a564e333074666d464b64524b35772b4835596449507a6a2f73337468504e6c6f7a56586f77322b715a766a2b2f2b4d32487076712f542f374b2f754e534b35357066544e7a6a792f46656d622b4c75725577784b7354317164666b483878414467496941417541674941433443416f434c67414467496941417541674941433443416f434c67414467496941417541674941433443416f434c67414467496941417541674941433443416f417242664e61695972653846506147487268786362304e71684e4b347752343341646f71314d4c3374354d6d68464c3830323769334757354d38326c6e3575352b5a36736e79316c53372f782f73775548626f454f4f64706e567a37793276783061597a6f4d63646553314b47564b67673157386d376b74416a494b7a4c396431466a4c72745178316b4d4d31677636756445363136624871732b795a577a746c3274504c776f616c576d3274546a554f30464c57316e646f2f7555654c553565373233516471685a462f4d514134434967414c67494341417541674b416934414134434967414c67494341417541674b416934414134434967414c67494341417541674b416934414134434967414c6749434143757441744f48385464592b673979687a30352b4a33645235716b6a32704633517544764b676a7645386968304d3155645a4c3169787737573974723070387565766244352b61716f586e33317271753262795a34644e715a3448625a324752365a4b73634f6652436855783945682b34515a59533038386f7851702b796c394b684f4f4e523041506967316a75626e444677374459383047374b5a75506c6a656d756a7265327573796d574c2f396d6a586e2b687a655847344d6458324a747548737859516558686958363476544848584a785537334e7739656c374339317357302f41544134434c67414467496941417541674941433443416f434c67414467496941417541674941433443416f434c67414467496941417541674941433443416f434c6741446749694141754e4c6f50584e654f6e5665644867776667785a54724b565a567356625337724d4e756d36495578633463314f6552692b306e626f4a7335324f5853595a4f6a2f6a6b5479324b68766852444f567063394c364f5a566962716f5442644731767674394f69505278754c39304a4e6267474d53357464364e46505444383644656c45466371412f6e7665327956724479672b466f2f7868656d2b714c6f682b655437384f39754a61472b6456696662726e457a317a33397a6271724e6d79753732462b6159703966326450354d314d7363575866376e3575716d6e7a79456f645331474d77686741377a4543416f434c67414467496941417541674941433443416f434c67414467496941417541674941433443416f434c67414467496941417541674941433443416f434c6741446749694141754e4c5465482b4a797361797265744c30635a34457253536c7561767935556c73513371575a70745a31706a30666f383267382f306b70416d6e2f2f5433314e666e6c643749754474696237554f7736614876632f4f70726659776637344c3936494857627658726d32417658346c7a7958743763506b2f70726f35504c5135614755382b38316a7531302f4d6b554a7761613473564f6c77616d6347367a594b4462617050722b54596344654661574f6864746e504d7732376c34506576362f6a547144557a5430714e7972683467635a6970586f2b2b4f33576357622b65375372594f6d6b424d6362326c56696453374251394142502b564348306c59335a72314a72516c436479512f4d514334434167414c67494367497541414f416949414334434167414c67494367497541414f416949414334434167414c67494367497541414f416949414334434167414c674943674374746e65664e7a3279787263326d754c427350777261474d31504877596267395956634c354f746871315a2b766a4547796174486b3053394a4c5a316162757235694e63565567756e74466d61766a6e7172784d666e7852346c62582f65786d4a627356696f7666746d316f71466d72462b396735684d455549693633796c536c795450623234736432716e52572f49413474364d70486f5a697a364d6545442f5a315274434c424d707532686c71343278314f57346671336644484e616d327064412f4e694e4d6d783776327736446644747a663647492f727a664263444969584c5344453172445735584f745830344e336977567454546a636d586c6f48334a583461313763382b7446507845774f416934414134434967414c67494341417541674b416934414134434967414c67494341417541674b416934414134434967414c67494341417541674b416934414134434967414c68534b50632f2f42374b62454638746e364970663448656e394343467050514a507245446c727a2b667635324b76396961374e623130706a56315a48465a576856494b6670633071422f7a6978314d704e3651566273664e444f573576435659663961624d6f596e6c4e444545656f37312f76662f4f54705843386672655077773149416162544c464b785235753966614e556d65697873782b726c647a3044622b56563271662f746144367376396379306d7a6f4e6258667154566b4463316e306d2f7438757a4856766e3551765257627156593232382b3232686a484770694857577a697161344f78787034326c784376626c443050616e7a4c6557767636466e597166474142634241514146774542774556414148415245414263424151414677454277455641414841524541426342415141467745427745564141484152454142634241514146774542774556414148436c36584231377838324b64757a704256653741617a5964414c567637337937307459736e4b663830622b7971765444484661432f79316c513355632f6c59544e6147675a54354e593256505439306675587a44374a422f74634c46683566446261507a3352796c3675706d4a767670684e3954707362424c5037434576395357577a74536a747436657669624a71375271625461446159656e765439304f443348755667573638687536385a667a746f595537325777366a6633435632574a533673464564703779726e5873664c4b334a5361792f612b74786c725178327532594f6d7a50454674686f7a5a514b4c6c4c2b4162686e5041544134434c67414467496941417541674941433443416f434c67414467496941417541674941433443416f434c67414467496941417541674941433443416f434c6741446749694141754e4c6a346635796a422b6b624539487261776968574933423745316f2f726b4d4e695574537a3776417a324b6d67464b36334859656f517161764e326c5278694262457770686f78574b48516f67656e524c48656a327a32442f794d6d62373732557978567776356d38663653304d6e333433323832736e6630337562524746644d455734326e6e376430467537666c4c4f36324264784d555537674d644647364e354d5365377a64704366566476376975785943574559454f48426f38304a705056755a5367586b38723964486c72432f4b55734e6250536c586c753072635336706e746e6e5779316b6d706458633276424d635768766d354d30315a6a46552f665a5835694148415245414263424151414677454277455641414841524541426342415141467745427745564141484152454142634241514146774542774556414148415245414263424151415633727356424f6344363072514875657666554e4c4233364532357966596c6c41636657425348325162543368396a68676a6f4d3061704969746a5545757237343376794564476a477157747953522b357055367974756739335845636246313051706a746a626268546847367a435a68484f532f7637692f6a635064574b706148666c56486638736b5044796d65484f7335736b6948566d337651446b3972635272586f366c36684f59387a3559583766414d4e65785753552b4970554e6854497a5231474b715134325966564572634162374a71354d7464766432744f7333542b376d317437566c2b4b46673666486f35324b6e356941484152454142634241514146774542774556414148415245414263424151414677454277455641414841524541426342415141467745427745564141484152454142634241514146774542774a552b7637322f6b474c4a785a5a46712f433458494c39366c62506f4a767a585774724d6357774753306c72536d6f4e546a64484d586d6d6d6f735053716c537075514b65624637486f76566e565651394448554e75786d6a534f74743575544e486d635a776d55333354696d7543646d613375343174486e3967696d465a374f4f58333971702b41594277455641414841524541426342415141467745427745564141484152454142634241514146774542774556414148415245414263424151414677454277455641414841524541426342415141562f724e744c72334432397a744d7573465a766b4f4e6a31786470554a513057676a615845474e396955557470535a713173746570735042564f2f36597253536c5a4a624d5a444a686b45664a4556396a334e6536746f655464486d734270485530337a564f656a3763395535784c557a2f423635736350487475703075766c2f74616262334b796234725777425444594b764e316d52465034447437415835337534796943327a3373413039776949306d567061323771677777747745316232394a613047617438617439694777324b314e4e5337415374503170703054744c3276584d35796466672f7945774f416934414134434967414c67494341417541674b416934414134434967414c67494341417541674b416934414134434967414c67494341417541674b416934414134434967414c6a535a62362f4432496552687554396c78386e7734477379486f4f6661756a4551736e626c373652656b74515430485358302b496a6f73636e5759777954533172614c484b48666f753767694c545a6247776f383068436438443073766c2f6842496d3431747a7257796c315a6f6b724f2b324750555433474d67305878494c656a46364a2b5938355a4c347a7049635967747a67317055745774586c6f2b397a43515132496474546d52613170615a6b5a4c5132444b637179324b7757344e5439586139506e77632f4d514334434167414c674943674f7533724671757944324c36576f41414141415355564f524b35435949493d222077696474683d2232363422206865696768743d22323634222f3e203c2f7376673ea264697066735822122058e88927d7ea5ea859b053bda2b46de466c6aa57c9af155dcf387e3e7d5e49ff64736f6c63430008090033",
  "devdoc": {
    "kind": "dev",
    "methods": {},
    "version": 1
  },
  "userdoc": {
    "kind": "user",
    "methods": {},
    "version": 1
  },
  "storageLayout": {
    "storage": [],
    "types": null
  }
}