{
  "address": "0x42Be93d262FdfB9F3FAa3eA028CB99f5A73F78bc",
  "abi": [
    {
      "inputs": [
        {
          "internalType": "address",
          "name": "_stone",
          "type": "address"
        }
      ],
      "stateMutability": "nonpayable",
      "type": "constructor"
    },
    {
      "inputs": [],
      "name": "InSufficient",
      "type": "error"
    },
    {
      "inputs": [],
      "name": "InvalidExpiredTime",
      "type": "error"
    },
    {
      "inputs": [],
      "name": "InvalidParam",
      "type": "error"
    },
    {
      "inputs": [],
      "name": "NotAllowed",
      "type": "error"
    },
    {
      "inputs": [],
      "name": "NotExpired",
      "type": "error"
    },
    {
      "inputs": [],
      "name": "NotZero",
      "type": "error"
    },
    {
      "anonymous": false,
      "inputs": [
        {
          "indexed": true,
          "internalType": "address",
          "name": "owner",
          "type": "address"
        },
        {
          "indexed": true,
          "internalType": "address",
          "name": "approved",
          "type": "address"
        },
        {
          "indexed": true,
          "internalType": "uint256",
          "name": "tokenId",
          "type": "uint256"
        }
      ],
      "name": "Approval",
      "type": "event"
    },
    {
      "anonymous": false,
      "inputs": [
        {
          "indexed": true,
          "internalType": "address",
          "name": "owner",
          "type": "address"
        },
        {
          "indexed": true,
          "internalType": "address",
          "name": "operator",
          "type": "address"
        },
        {
          "indexed": false,
          "internalType": "bool",
          "name": "approved",
          "type": "bool"
        }
      ],
      "name": "ApprovalForAll",
      "type": "event"
    },
    {
      "anonymous": false,
      "inputs": [
        {
          "indexed": true,
          "internalType": "address",
          "name": "owner",
          "type": "address"
        },
        {
          "indexed": true,
          "internalType": "address",
          "name": "recipient",
          "type": "address"
        },
        {
          "indexed": false,
          "internalType": "uint256",
          "name": "optionId",
          "type": "uint256"
        }
      ],
      "name": "ExerciseOption",
      "type": "event"
    },
    {
      "anonymous": false,
      "inputs": [
        {
          "indexed": true,
          "internalType": "address",
          "name": "owner",
          "type": "address"
        },
        {
          "indexed": false,
          "internalType": "uint256",
          "name": "amount",
          "type": "uint256"
        },
        {
          "indexed": false,
          "internalType": "uint256",
          "name": "expirationTime",
          "type": "uint256"
        }
      ],
      "name": "GrantOption",
      "type": "event"
    },
    {
      "anonymous": false,
      "inputs": [
        {
          "indexed": true,
          "internalType": "address",
          "name": "operator",
          "type": "address"
        },
        {
          "indexed": true,
          "internalType": "address",
          "name": "recipient",
          "type": "address"
        },
        {
          "indexed": false,
          "internalType": "uint256",
          "name": "fromOptionId",
          "type": "uint256"
        },
        {
          "indexed": false,
          "internalType": "uint256",
          "name": "toOptionId",
          "type": "uint256"
        }
      ],
      "name": "MergeOption",
      "type": "event"
    },
    {
      "anonymous": false,
      "inputs": [
        {
          "indexed": true,
          "internalType": "address",
          "name": "previousOwner",
          "type": "address"
        },
        {
          "indexed": true,
          "internalType": "address",
          "name": "newOwner",
          "type": "address"
        }
      ],
      "name": "OwnershipTransferred",
      "type": "event"
    },
    {
      "anonymous": false,
      "inputs": [
        {
          "indexed": true,
          "internalType": "address",
          "name": "operator",
          "type": "address"
        },
        {
          "indexed": false,
          "internalType": "uint256",
          "name": "fromOptionId",
          "type": "uint256"
        },
        {
          "indexed": false,
          "internalType": "uint256",
          "name": "toOptionId",
          "type": "uint256"
        },
        {
          "indexed": false,
          "internalType": "uint256",
          "name": "amount",
          "type": "uint256"
        }
      ],
      "name": "SplitOption",
      "type": "event"
    },
    {
      "anonymous": false,
      "inputs": [
        {
          "indexed": true,
          "internalType": "address",
          "name": "from",
          "type": "address"
        },
        {
          "indexed": true,
          "internalType": "address",
          "name": "to",
          "type": "address"
        },
        {
          "indexed": true,
          "internalType": "uint256",
          "name": "tokenId",
          "type": "uint256"
        }
      ],
      "name": "Transfer",
      "type": "event"
    },
    {
      "inputs": [
        {
          "internalType": "address",
          "name": "to",
          "type": "address"
        },
        {
          "internalType": "uint256",
          "name": "tokenId",
          "type": "uint256"
        }
      ],
      "name": "approve",
      "outputs": [],
      "stateMutability": "nonpayable",
      "type": "function"
    },
    {
      "inputs": [
        {
          "internalType": "address",
          "name": "owner",
          "type": "address"
        }
      ],
      "name": "balanceOf",
      "outputs": [
        {
          "internalType": "uint256",
          "name": "",
          "type": "uint256"
        }
      ],
      "stateMutability": "view",
      "type": "function"
    },
    {
      "inputs": [
        {
          "internalType": "address",
          "name": "to",
          "type": "address"
        },
        {
          "internalType": "uint256",
          "name": "optionId",
          "type": "uint256"
        }
      ],
      "name": "exerciseOption",
      "outputs": [],
      "stateMutability": "nonpayable",
      "type": "function"
    },
    {
      "inputs": [
        {
          "internalType": "uint256",
          "name": "tokenId",
          "type": "uint256"
        }
      ],
      "name": "getApproved",
      "outputs": [
        {
          "internalType": "address",
          "name": "",
          "type": "address"
        }
      ],
      "stateMutability": "view",
      "type": "function"
    },
    {
      "inputs": [
        {
          "internalType": "address",
          "name": "to",
          "type": "address"
        },
        {
          "internalType": "uint256",
          "name": "amount",
          "type": "uint256"
        },
        {
          "internalType": "uint256",
          "name": "expirationTime",
          "type": "uint256"
        }
      ],
      "name": "grantOption",
      "outputs": [
        {
          "internalType": "uint256",
          "name": "optionId",
          "type": "uint256"
        }
      ],
      "stateMutability": "nonpayable",
      "type": "function"
    },
    {
      "inputs": [
        {
          "internalType": "address",
          "name": "owner",
          "type": "address"
        },
        {
          "internalType": "address",
          "name": "operator",
          "type": "address"
        }
      ],
      "name": "isApprovedForAll",
      "outputs": [
        {
          "internalType": "bool",
          "name": "",
          "type": "bool"
        }
      ],
      "stateMutability": "view",
      "type": "function"
    },
    {
      "inputs": [
        {
          "internalType": "address",
          "name": "to",
          "type": "address"
        },
        {
          "internalType": "uint256",
          "name": "fromOptionId",
          "type": "uint256"
        },
        {
          "internalType": "uint256",
          "name": "toOptionId",
          "type": "uint256"
        }
      ],
      "name": "mergeOption",
      "outputs": [],
      "stateMutability": "nonpayable",
      "type": "function"
    },
    {
      "inputs": [
        {
          "internalType": "bytes[]",
          "name": "data",
          "type": "bytes[]"
        }
      ],
      "name": "multicall",
      "outputs": [
        {
          "internalType": "bytes[]",
          "name": "results",
          "type": "bytes[]"
        }
      ],
      "stateMutability": "nonpayable",
      "type": "function"
    },
    {
      "inputs": [],
      "name": "name",
      "outputs": [
        {
          "internalType": "string",
          "name": "",
          "type": "string"
        }
      ],
      "stateMutability": "view",
      "type": "function"
    },
    {
      "inputs": [
        {
          "internalType": "uint256",
          "name": "",
          "type": "uint256"
        }
      ],
      "name": "option",
      "outputs": [
        {
          "internalType": "uint256",
          "name": "amount",
          "type": "uint256"
        },
        {
          "internalType": "uint256",
          "name": "creationTime",
          "type": "uint256"
        },
        {
          "internalType": "uint256",
          "name": "expirationTime",
          "type": "uint256"
        }
      ],
      "stateMutability": "view",
      "type": "function"
    },
    {
      "inputs": [],
      "name": "owner",
      "outputs": [
        {
          "internalType": "address",
          "name": "",
          "type": "address"
        }
      ],
      "stateMutability": "view",
      "type": "function"
    },
    {
      "inputs": [
        {
          "internalType": "uint256",
          "name": "tokenId",
          "type": "uint256"
        }
      ],
      "name": "ownerOf",
      "outputs": [
        {
          "internalType": "address",
          "name": "",
          "type": "address"
        }
      ],
      "stateMutability": "view",
      "type": "function"
    },
    {
      "inputs": [],
      "name": "renounceOwnership",
      "outputs": [],
      "stateMutability": "nonpayable",
      "type": "function"
    },
    {
      "inputs": [
        {
          "internalType": "address",
          "name": "from",
          "type": "address"
        },
        {
          "internalType": "address",
          "name": "to",
          "type": "address"
        },
        {
          "internalType": "uint256",
          "name": "tokenId",
          "type": "uint256"
        }
      ],
      "name": "safeTransferFrom",
      "outputs": [],
      "stateMutability": "nonpayable",
      "type": "function"
    },
    {
      "inputs": [
        {
          "internalType": "address",
          "name": "from",
          "type": "address"
        },
        {
          "internalType": "address",
          "name": "to",
          "type": "address"
        },
        {
          "internalType": "uint256",
          "name": "tokenId",
          "type": "uint256"
        },
        {
          "internalType": "bytes",
          "name": "data",
          "type": "bytes"
        }
      ],
      "name": "safeTransferFrom",
      "outputs": [],
      "stateMutability": "nonpayable",
      "type": "function"
    },
    {
      "inputs": [
        {
          "internalType": "address",
          "name": "operator",
          "type": "address"
        },
        {
          "internalType": "bool",
          "name": "approved",
          "type": "bool"
        }
      ],
      "name": "setApprovalForAll",
      "outputs": [],
      "stateMutability": "nonpayable",
      "type": "function"
    },
    {
      "inputs": [
        {
          "internalType": "address",
          "name": "to",
          "type": "address"
        },
        {
          "internalType": "uint256",
          "name": "optionId",
          "type": "uint256"
        },
        {
          "internalType": "uint256",
          "name": "amount",
          "type": "uint256"
        }
      ],
      "name": "splitOption",
      "outputs": [
        {
          "internalType": "uint256",
          "name": "newOptionId",
          "type": "uint256"
        }
      ],
      "stateMutability": "nonpayable",
      "type": "function"
    },
    {
      "inputs": [],
      "name": "stone",
      "outputs": [
        {
          "internalType": "contract IERC20",
          "name": "",
          "type": "address"
        }
      ],
      "stateMutability": "view",
      "type": "function"
    },
    {
      "inputs": [
        {
          "internalType": "bytes4",
          "name": "interfaceId",
          "type": "bytes4"
        }
      ],
      "name": "supportsInterface",
      "outputs": [
        {
          "internalType": "bool",
          "name": "",
          "type": "bool"
        }
      ],
      "stateMutability": "view",
      "type": "function"
    },
    {
      "inputs": [],
      "name": "symbol",
      "outputs": [
        {
          "internalType": "string",
          "name": "",
          "type": "string"
        }
      ],
      "stateMutability": "view",
      "type": "function"
    },
    {
      "inputs": [
        {
          "internalType": "uint256",
          "name": "index",
          "type": "uint256"
        }
      ],
      "name": "tokenByIndex",
      "outputs": [
        {
          "internalType": "uint256",
          "name": "",
          "type": "uint256"
        }
      ],
      "stateMutability": "view",
      "type": "function"
    },
    {
      "inputs": [
        {
          "internalType": "address",
          "name": "owner",
          "type": "address"
        },
        {
          "internalType": "uint256",
          "name": "index",
          "type": "uint256"
        }
      ],
      "name": "tokenOfOwnerByIndex",
      "outputs": [
        {
          "internalType": "uint256",
          "name": "",
          "type": "uint256"
        }
      ],
      "stateMutability": "view",
      "type": "function"
    },
    {
      "inputs": [
        {
          "internalType": "uint256",
          "name": "tokenId",
          "type": "uint256"
        }
      ],
      "name": "tokenURI",
      "outputs": [
        {
          "internalType": "string",
          "name": "text",
          "type": "string"
        }
      ],
      "stateMutability": "view",
      "type": "function"
    },
    {
      "inputs": [],
      "name": "totalSupply",
      "outputs": [
        {
          "internalType": "uint256",
          "name": "",
          "type": "uint256"
        }
      ],
      "stateMutability": "view",
      "type": "function"
    },
    {
      "inputs": [
        {
          "internalType": "address",
          "name": "from",
          "type": "address"
        },
        {
          "internalType": "address",
          "name": "to",
          "type": "address"
        },
        {
          "internalType": "uint256",
          "name": "tokenId",
          "type": "uint256"
        }
      ],
      "name": "transferFrom",
      "outputs": [],
      "stateMutability": "nonpayable",
      "type": "function"
    },
    {
      "inputs": [
        {
          "internalType": "address",
          "name": "newOwner",
          "type": "address"
        }
      ],
      "name": "transferOwnership",
      "outputs": [],
      "stateMutability": "nonpayable",
      "type": "function"
    }
  ],
  "transactionHash": "0xb94a26ffd1374188378dbc84d1e9b823602a5ac20596cbaf14a224fe953067e1",
  "args": [
    "0x816BE2E0594D7cFF6a745591E72BB7397F272385"
  ],
  "numDeployments": 4,
  "solcInputHash": "fde48049deae83e236cc23c5381bc339",
  "bytecode": "0x60a06040523480156200001157600080fd5b50604051620053d6380380620053d6833981016040819052620000349162000666565b604080518082018252601581527f50616e6765612056657374696e67204f7074696f6e00000000000000000000006020808301918252835180850190945260038452620564f560ec1b9084015281519192916200009491600091620005c0565b508051620000aa906001906020840190620005c0565b505050620000c7620000c1620000ef60201b60201c565b620000f3565b6001600160a01b0381166080526000600c819055620000e890309062000145565b506200074c565b3390565b600a80546001600160a01b038381166001600160a01b0319831681179093556040519116919082907f8be0079c531659141344cd1fd0a4f28419497f9722a3daafe3b4186f6b6457e090600090a35050565b6001600160a01b038216620001a15760405162461bcd60e51b815260206004820181905260248201527f4552433732313a206d696e7420746f20746865207a65726f206164647265737360448201526064015b60405180910390fd5b6000818152600260205260409020546001600160a01b031615620002085760405162461bcd60e51b815260206004820152601c60248201527f4552433732313a20746f6b656e20616c7265616479206d696e74656400000000604482015260640162000198565b62000216600083836200029f565b6001600160a01b038216600090815260036020526040812080546001929062000241908490620006ae565b909155505060008181526002602052604080822080546001600160a01b0319166001600160a01b03861690811790915590518392907fddf252ad1be2c89b69c2b068fc378daa952ba7f163c4a11628f55a4df523b3ef908290a45050565b620002b78383836200035560201b620007101760201c565b6001600160a01b03831662000315576200030f81600880546000838152600960205260408120829055600182018355919091527ff3f7a9fe364faab93b216da50a3214154f22a0a2b415b23a84c8169e8b636ee30155565b6200033b565b816001600160a01b0316836001600160a01b0316146200033b576200033b838262000380565b6001600160a01b0382166200035a5762000355816200042d565b505050565b826001600160a01b0316826001600160a01b0316146200035557620003558282620004e7565b600060016200039a846200053860201b62000f401760201c565b620003a69190620006c9565b600083815260076020526040902054909150808214620003fa576001600160a01b03841660009081526006602090815260408083208584528252808320548484528184208190558352600790915290208190555b5060009182526007602090815260408084208490556001600160a01b039094168352600681528383209183525290812055565b6008546000906200044190600190620006c9565b600083815260096020526040812054600880549394509092849081106200046c576200046c620006e3565b906000526020600020015490508060088381548110620004905762000490620006e3565b6000918252602080832090910192909255828152600990915260408082208490558582528120556008805480620004cb57620004cb620006f9565b6001900381819060005260206000200160009055905550505050565b6000620004ff836200053860201b62000f401760201c565b6001600160a01b039093166000908152600660209081526040808320868452825280832085905593825260079052919091209190915550565b60006001600160a01b038216620005a45760405162461bcd60e51b815260206004820152602960248201527f4552433732313a2061646472657373207a65726f206973206e6f7420612076616044820152683634b21037bbb732b960b91b606482015260840162000198565b506001600160a01b031660009081526003602052604090205490565b828054620005ce906200070f565b90600052602060002090601f016020900481019282620005f257600085556200063d565b82601f106200060d57805160ff19168380011785556200063d565b828001600101855582156200063d579182015b828111156200063d57825182559160200191906001019062000620565b506200064b9291506200064f565b5090565b5b808211156200064b576000815560010162000650565b6000602082840312156200067957600080fd5b81516001600160a01b03811681146200069157600080fd5b9392505050565b634e487b7160e01b600052601160045260246000fd5b60008219821115620006c457620006c462000698565b500190565b600082821015620006de57620006de62000698565b500390565b634e487b7160e01b600052603260045260246000fd5b634e487b7160e01b600052603160045260246000fd5b600181811c908216806200072457607f821691505b602082108114156200074657634e487b7160e01b600052602260045260246000fd5b50919050565b608051614c6062000776600039600081816101b801528181610e2a01526110990152614c606000f3fe608060405234801561001057600080fd5b50600436106101ae5760003560e01c80636448be8c116100ee57806395d89b4111610097578063b88d4fde11610071578063b88d4fde146103df578063c87b56dd146103f2578063e985e9c514610405578063f2fde38b1461044e57600080fd5b806395d89b41146103a4578063a22cb465146103ac578063ac9650d8146103bf57600080fd5b8063715018a6116100c8578063715018a61461036b5780638da5cb5b14610373578063906ef4391461039157600080fd5b80636448be8c146102fb57806367842b821461034557806370a082311461035857600080fd5b806323b872dd1161015b57806342842e0e1161013557806342842e0e146102af5780634f6ccce7146102c25780635b08f6af146102d55780636352211e146102e857600080fd5b806323b872dd146102765780632618ec68146102895780632f745c591461029c57600080fd5b8063081812fc1161018c578063081812fc1461023c578063095ea7b31461024f57806318160ddd1461026457600080fd5b80630167eb85146101b357806301ffc9a71461020457806306fdde0314610227575b600080fd5b6101da7f000000000000000000000000000000000000000000000000000000000000000081565b60405173ffffffffffffffffffffffffffffffffffffffff90911681526020015b60405180910390f35b610217610212366004612cc2565b610461565b60405190151581526020016101fb565b61022f6104bd565b6040516101fb9190612d55565b6101da61024a366004612d68565b61054f565b61026261025d366004612daa565b610583565b005b6008545b6040519081526020016101fb565b610262610284366004612dd4565b610715565b610268610297366004612e10565b6107b7565b6102686102aa366004612daa565b610907565b6102626102bd366004612dd4565b6109d6565b6102686102d0366004612d68565b6109f1565b6102626102e3366004612e10565b610aaf565b6101da6102f6366004612d68565b610cb7565b61032a610309366004612d68565b600b6020526000908152604090208054600182015460029092015490919083565b604080519384526020840192909252908201526060016101fb565b610262610353366004612daa565b610d43565b610268610366366004612e43565b610f40565b61026261100e565b600a5473ffffffffffffffffffffffffffffffffffffffff166101da565b61026861039f366004612e10565b611022565b61022f61113c565b6102626103ba366004612e6c565b61114b565b6103d26103cd366004612ea3565b61115a565b6040516101fb9190612f18565b6102626103ed366004612fc7565b61124f565b61022f610400366004612d68565b6112f6565b6102176104133660046130c1565b73ffffffffffffffffffffffffffffffffffffffff918216600090815260056020908152604080832093909416825291909152205460ff1690565b61026261045c366004612e43565b611375565b60007fffffffff0000000000000000000000000000000000000000000000000000000082167f780e9d630000000000000000000000000000000000000000000000000000000014806104b757506104b78261142c565b92915050565b6060600080546104cc906130f4565b80601f01602080910402602001604051908101604052809291908181526020018280546104f8906130f4565b80156105455780601f1061051a57610100808354040283529160200191610545565b820191906000526020600020905b81548152906001019060200180831161052857829003601f168201915b5050505050905090565b600061055a8261150f565b5060009081526004602052604090205473ffffffffffffffffffffffffffffffffffffffff1690565b600061058e82610cb7565b90508073ffffffffffffffffffffffffffffffffffffffff168373ffffffffffffffffffffffffffffffffffffffff161415610651576040517f08c379a000000000000000000000000000000000000000000000000000000000815260206004820152602160248201527f4552433732313a20617070726f76616c20746f2063757272656e74206f776e6560448201527f720000000000000000000000000000000000000000000000000000000000000060648201526084015b60405180910390fd5b3373ffffffffffffffffffffffffffffffffffffffff8216148061067a575061067a8133610413565b610706576040517f08c379a000000000000000000000000000000000000000000000000000000000815260206004820152603e60248201527f4552433732313a20617070726f76652063616c6c6572206973206e6f7420746f60448201527f6b656e206f776e6572206e6f7220617070726f76656420666f7220616c6c00006064820152608401610648565b610710838361159a565b505050565b610720335b8261163a565b6107ac576040517f08c379a000000000000000000000000000000000000000000000000000000000815260206004820152602e60248201527f4552433732313a2063616c6c6572206973206e6f7420746f6b656e206f776e6560448201527f72206e6f7220617070726f7665640000000000000000000000000000000000006064820152608401610648565b6107108383836116fa565b60006107c3338461163a565b6107f9576040517f3d693ada00000000000000000000000000000000000000000000000000000000815260040160405180910390fd5b81610830576040517f0295aa9800000000000000000000000000000000000000000000000000000000815260040160405180910390fd5b6000838152600b6020526040902054828111610878576040517f53b6615f00000000000000000000000000000000000000000000000000000000815260040160405180910390fd5b6000848152600b602052604081208054859290610896908490613177565b90915550506000848152600b60205260409020600201546108ba908690859061196c565b6040805186815260208101839052808201869052905191935033917f69a798be88d78884e9515c916e0f9a544dddbbbb3170727db984c35cc945a9309181900360600190a2509392505050565b600061091283610f40565b82106109a0576040517f08c379a000000000000000000000000000000000000000000000000000000000815260206004820152602b60248201527f455243373231456e756d657261626c653a206f776e657220696e646578206f7560448201527f74206f6620626f756e64730000000000000000000000000000000000000000006064820152608401610648565b5073ffffffffffffffffffffffffffffffffffffffff919091166000908152600660209081526040808320938352929052205490565b6107108383836040518060200160405280600081525061124f565b60006109fc60085490565b8210610a8a576040517f08c379a000000000000000000000000000000000000000000000000000000000815260206004820152602c60248201527f455243373231456e756d657261626c653a20676c6f62616c20696e646578206f60448201527f7574206f6620626f756e647300000000000000000000000000000000000000006064820152608401610648565b60088281548110610a9d57610a9d61318e565b90600052602060002001549050919050565b610aba335b8361163a565b610af0576040517f3d693ada00000000000000000000000000000000000000000000000000000000815260040160405180910390fd5b610af93361071a565b610b2f576040517f3d693ada00000000000000000000000000000000000000000000000000000000815260040160405180910390fd5b80821415610b69576040517fd252903400000000000000000000000000000000000000000000000000000000815260040160405180910390fd5b6000818152600b602052604080822060029081015485845291909220909101541115610bc1576040517fea52bd4700000000000000000000000000000000000000000000000000000000815260040160405180910390fd5b6000828152600b602052604080822054838352908220805491929091610be89084906131bd565b90915550610bf79050826119d9565b6000828152600b6020526040812081815560018101829055600201819055610c1e82610cb7565b90508373ffffffffffffffffffffffffffffffffffffffff168173ffffffffffffffffffffffffffffffffffffffff1614610c5e57610c5e8185846116fa565b604080518481526020810184905273ffffffffffffffffffffffffffffffffffffffff86169133917f8c1a23db76ac39c9b0d6025953073b816edc212a98abd56020f713de86689073910160405180910390a350505050565b60008181526002602052604081205473ffffffffffffffffffffffffffffffffffffffff16806104b7576040517f08c379a000000000000000000000000000000000000000000000000000000000815260206004820152601860248201527f4552433732313a20696e76616c696420746f6b656e20494400000000000000006044820152606401610648565b610d4c3361071a565b610d82576040517f3d693ada00000000000000000000000000000000000000000000000000000000815260040160405180910390fd5b6000818152600b6020526040902060020154421015610dcd576040517fd0404f8500000000000000000000000000000000000000000000000000000000815260040160405180910390fd5b6000818152600b6020526040908190205490517fa9059cbb00000000000000000000000000000000000000000000000000000000815273ffffffffffffffffffffffffffffffffffffffff848116600483015260248201929092527f00000000000000000000000000000000000000000000000000000000000000009091169063a9059cbb90604401602060405180830381600087803b158015610e7057600080fd5b505af1158015610e84573d6000803e3d6000fd5b505050506040513d601f19601f82011682018060405250810190610ea891906131d5565b508173ffffffffffffffffffffffffffffffffffffffff16610ec982610cb7565b73ffffffffffffffffffffffffffffffffffffffff167fc1418daa22479c5466630dc276b28d8d6efccad08cc4b8b21940c62831dc862b83604051610f1091815260200190565b60405180910390a3610f21816119d9565b6000908152600b60205260408120818155600181018290556002015550565b600073ffffffffffffffffffffffffffffffffffffffff8216610fe5576040517f08c379a000000000000000000000000000000000000000000000000000000000815260206004820152602960248201527f4552433732313a2061646472657373207a65726f206973206e6f74206120766160448201527f6c6964206f776e657200000000000000000000000000000000000000000000006064820152608401610648565b5073ffffffffffffffffffffffffffffffffffffffff1660009081526003602052604090205490565b611016611ab2565b6110206000611b33565b565b60008261105b576040517f0295aa9800000000000000000000000000000000000000000000000000000000815260040160405180910390fd5b428211611094576040517fea52bd4700000000000000000000000000000000000000000000000000000000815260040160405180910390fd5b6110d67f000000000000000000000000000000000000000000000000000000000000000073ffffffffffffffffffffffffffffffffffffffff16333086611baa565b6110e184848461196c565b604080518581526020810185905291925073ffffffffffffffffffffffffffffffffffffffff8616917f7413a27f7e4cec70857061607feb4fd952794cbfd714520880756a988ce83a64910160405180910390a29392505050565b6060600180546104cc906130f4565b611156338383611c3f565b5050565b60608167ffffffffffffffff81111561117557611175612f98565b6040519080825280602002602001820160405280156111a857816020015b60608152602001906001900390816111935790505b50905060005b8281101561124857611218308585848181106111cc576111cc61318e565b90506020028101906111de91906131f2565b8080601f016020809104026020016040519081016040528093929190818152602001838380828437600092019190915250611d6d92505050565b82828151811061122a5761122a61318e565b602002602001018190525080806112409061325e565b9150506111ae565b5092915050565b61125833610ab4565b6112e4576040517f08c379a000000000000000000000000000000000000000000000000000000000815260206004820152602e60248201527f4552433732313a2063616c6c6572206973206e6f7420746f6b656e206f776e6560448201527f72206e6f7220617070726f7665640000000000000000000000000000000000006064820152608401610648565b6112f084848484611d99565b50505050565b6060600061130a611305611e3c565b611e5f565b9050600061134a61131a85611fb3565b83611324876120e5565b604051602001611336939291906132b3565b604051602081830303815290604052611e5f565b90508060405160200161135d919061349f565b60405160208183030381529060405292505050919050565b61137d611ab2565b73ffffffffffffffffffffffffffffffffffffffff8116611420576040517f08c379a000000000000000000000000000000000000000000000000000000000815260206004820152602660248201527f4f776e61626c653a206e6577206f776e657220697320746865207a65726f206160448201527f64647265737300000000000000000000000000000000000000000000000000006064820152608401610648565b61142981611b33565b50565b60007fffffffff0000000000000000000000000000000000000000000000000000000082167f80ac58cd0000000000000000000000000000000000000000000000000000000014806114bf57507fffffffff0000000000000000000000000000000000000000000000000000000082167f5b5e139f00000000000000000000000000000000000000000000000000000000145b806104b757507f01ffc9a7000000000000000000000000000000000000000000000000000000007fffffffff000000000000000000000000000000000000000000000000000000008316146104b7565b60008181526002602052604090205473ffffffffffffffffffffffffffffffffffffffff16611429576040517f08c379a000000000000000000000000000000000000000000000000000000000815260206004820152601860248201527f4552433732313a20696e76616c696420746f6b656e20494400000000000000006044820152606401610648565b600081815260046020526040902080547fffffffffffffffffffffffff00000000000000000000000000000000000000001673ffffffffffffffffffffffffffffffffffffffff841690811790915581906115f482610cb7565b73ffffffffffffffffffffffffffffffffffffffff167f8c5be1e5ebec7d5bd14f71427d1e84f3dd0314c0f7b2291e5b200ac8c7c3b92560405160405180910390a45050565b60008061164683610cb7565b90508073ffffffffffffffffffffffffffffffffffffffff168473ffffffffffffffffffffffffffffffffffffffff1614806116b4575073ffffffffffffffffffffffffffffffffffffffff80821660009081526005602090815260408083209388168352929052205460ff165b806116f257508373ffffffffffffffffffffffffffffffffffffffff166116da8461054f565b73ffffffffffffffffffffffffffffffffffffffff16145b949350505050565b8273ffffffffffffffffffffffffffffffffffffffff1661171a82610cb7565b73ffffffffffffffffffffffffffffffffffffffff16146117bd576040517f08c379a000000000000000000000000000000000000000000000000000000000815260206004820152602560248201527f4552433732313a207472616e736665722066726f6d20696e636f72726563742060448201527f6f776e65720000000000000000000000000000000000000000000000000000006064820152608401610648565b73ffffffffffffffffffffffffffffffffffffffff821661185f576040517f08c379a0000000000000000000000000000000000000000000000000000000008152602060048201526024808201527f4552433732313a207472616e7366657220746f20746865207a65726f2061646460448201527f72657373000000000000000000000000000000000000000000000000000000006064820152608401610648565b61186a8383836121de565b61187560008261159a565b73ffffffffffffffffffffffffffffffffffffffff831660009081526003602052604081208054600192906118ab908490613177565b909155505073ffffffffffffffffffffffffffffffffffffffff821660009081526003602052604081208054600192906118e69084906131bd565b909155505060008181526002602052604080822080547fffffffffffffffffffffffff00000000000000000000000000000000000000001673ffffffffffffffffffffffffffffffffffffffff86811691821790925591518493918716917fddf252ad1be2c89b69c2b068fc378daa952ba7f163c4a11628f55a4df523b3ef91a4505050565b60006001600c600082825461198191906131bd565b9091555050600c54905061199584826122e4565b604080516060810182529384524260208086019182528583019485526000848152600b90915291909120935184555160018401559051600290920191909155919050565b60006119e482610cb7565b90506119f2816000846121de565b6119fd60008361159a565b73ffffffffffffffffffffffffffffffffffffffff81166000908152600360205260408120805460019290611a33908490613177565b909155505060008281526002602052604080822080547fffffffffffffffffffffffff00000000000000000000000000000000000000001690555183919073ffffffffffffffffffffffffffffffffffffffff8416907fddf252ad1be2c89b69c2b068fc378daa952ba7f163c4a11628f55a4df523b3ef908390a45050565b600a5473ffffffffffffffffffffffffffffffffffffffff163314611020576040517f08c379a000000000000000000000000000000000000000000000000000000000815260206004820181905260248201527f4f776e61626c653a2063616c6c6572206973206e6f7420746865206f776e65726044820152606401610648565b600a805473ffffffffffffffffffffffffffffffffffffffff8381167fffffffffffffffffffffffff0000000000000000000000000000000000000000831681179093556040519116919082907f8be0079c531659141344cd1fd0a4f28419497f9722a3daafe3b4186f6b6457e090600090a35050565b6040805173ffffffffffffffffffffffffffffffffffffffff85811660248301528416604482015260648082018490528251808303909101815260849091019091526020810180517bffffffffffffffffffffffffffffffffffffffffffffffffffffffff167f23b872dd000000000000000000000000000000000000000000000000000000001790526112f09085906124b2565b8173ffffffffffffffffffffffffffffffffffffffff168373ffffffffffffffffffffffffffffffffffffffff161415611cd5576040517f08c379a000000000000000000000000000000000000000000000000000000000815260206004820152601960248201527f4552433732313a20617070726f766520746f2063616c6c6572000000000000006044820152606401610648565b73ffffffffffffffffffffffffffffffffffffffff83811660008181526005602090815260408083209487168084529482529182902080547fffffffffffffffffffffffffffffffffffffffffffffffffffffffffffffff001686151590811790915591519182527f17307eab39ab6107e8899845ad3d59bd9653f200f220920489ca2b5937696c31910160405180910390a3505050565b6060611d928383604051806060016040528060278152602001614c04602791396125be565b9392505050565b611da48484846116fa565b611db0848484846126e6565b6112f0576040517f08c379a000000000000000000000000000000000000000000000000000000000815260206004820152603260248201527f4552433732313a207472616e7366657220746f206e6f6e20455243373231526560448201527f63656976657220696d706c656d656e74657200000000000000000000000000006064820152608401610648565b6060604051806113c00160405280611387815260200161383d6113879139905090565b6060815160001415611e7f57505060408051602081019091526000815290565b6000604051806060016040528060408152602001614bc46040913990506000600384516002611eae91906131bd565b611eb89190613513565b611ec3906004613527565b67ffffffffffffffff811115611edb57611edb612f98565b6040519080825280601f01601f191660200182016040528015611f05576020820181803683370190505b509050600182016020820185865187015b80821015611f71576003820191508151603f8160121c168501518453600184019350603f81600c1c168501518453600184019350603f8160061c168501518453600184019350603f8116850151845350600183019250611f16565b5050600386510660018114611f8d5760028114611fa057611fa8565b603d6001830353603d6002830353611fa8565b603d60018303535b509195945050505050565b606081611ff357505060408051808201909152600181527f3000000000000000000000000000000000000000000000000000000000000000602082015290565b8160005b811561201d57806120078161325e565b91506120169050600a83613513565b9150611ff7565b60008167ffffffffffffffff81111561203857612038612f98565b6040519080825280601f01601f191660200182016040528015612062576020820181803683370190505b5090505b84156116f257612077600183613177565b9150612084600a86613564565b61208f9060306131bd565b60f81b8183815181106120a4576120a461318e565b60200101907effffffffffffffffffffffffffffffffffffffffffffffffffffffffffffff1916908160001a9053506120de600a86613513565b9450612066565b6000818152600b6020526040812054606091829161210b9066038d7ea4c6800090613513565b9050600061212361211e6103e884613513565b611fb3565b9050600061213661211e6103e885613564565b9050818160405160200161214b929190613578565b604080517fffffffffffffffffffffffffffffffffffffffffffffffffffffffffffffffe08184030181529181526000888152600b602052206002015490945084935061219a92509050611fb3565b6000858152600b60205260409020600101546121b590611fb3565b6040516020016121c7939291906135d0565b604051602081830303815290604052915050919050565b73ffffffffffffffffffffffffffffffffffffffff83166122465761224181600880546000838152600960205260408120829055600182018355919091527ff3f7a9fe364faab93b216da50a3214154f22a0a2b415b23a84c8169e8b636ee30155565b612283565b8173ffffffffffffffffffffffffffffffffffffffff168373ffffffffffffffffffffffffffffffffffffffff16146122835761228383826128e5565b73ffffffffffffffffffffffffffffffffffffffff82166122a7576107108161299c565b8273ffffffffffffffffffffffffffffffffffffffff168273ffffffffffffffffffffffffffffffffffffffff1614610710576107108282612a4b565b73ffffffffffffffffffffffffffffffffffffffff8216612361576040517f08c379a000000000000000000000000000000000000000000000000000000000815260206004820181905260248201527f4552433732313a206d696e7420746f20746865207a65726f20616464726573736044820152606401610648565b60008181526002602052604090205473ffffffffffffffffffffffffffffffffffffffff16156123ed576040517f08c379a000000000000000000000000000000000000000000000000000000000815260206004820152601c60248201527f4552433732313a20746f6b656e20616c7265616479206d696e746564000000006044820152606401610648565b6123f9600083836121de565b73ffffffffffffffffffffffffffffffffffffffff8216600090815260036020526040812080546001929061242f9084906131bd565b909155505060008181526002602052604080822080547fffffffffffffffffffffffff00000000000000000000000000000000000000001673ffffffffffffffffffffffffffffffffffffffff861690811790915590518392907fddf252ad1be2c89b69c2b068fc378daa952ba7f163c4a11628f55a4df523b3ef908290a45050565b6000612514826040518060400160405280602081526020017f5361666545524332303a206c6f772d6c6576656c2063616c6c206661696c65648152508573ffffffffffffffffffffffffffffffffffffffff16612a9c9092919063ffffffff16565b805190915015610710578080602001905181019061253291906131d5565b610710576040517f08c379a000000000000000000000000000000000000000000000000000000000815260206004820152602a60248201527f5361666545524332303a204552433230206f7065726174696f6e20646964206e60448201527f6f742073756363656564000000000000000000000000000000000000000000006064820152608401610648565b606073ffffffffffffffffffffffffffffffffffffffff84163b612664576040517f08c379a000000000000000000000000000000000000000000000000000000000815260206004820152602660248201527f416464726573733a2064656c65676174652063616c6c20746f206e6f6e2d636f60448201527f6e747261637400000000000000000000000000000000000000000000000000006064820152608401610648565b6000808573ffffffffffffffffffffffffffffffffffffffff168560405161268c9190613795565b600060405180830381855af49150503d80600081146126c7576040519150601f19603f3d011682016040523d82523d6000602084013e6126cc565b606091505b50915091506126dc828286612aab565b9695505050505050565b600073ffffffffffffffffffffffffffffffffffffffff84163b156128da576040517f150b7a0200000000000000000000000000000000000000000000000000000000815273ffffffffffffffffffffffffffffffffffffffff85169063150b7a029061275d9033908990889088906004016137b1565b602060405180830381600087803b15801561277757600080fd5b505af19250505080156127c5575060408051601f3d9081017fffffffffffffffffffffffffffffffffffffffffffffffffffffffffffffffe01682019092526127c2918101906137f0565b60015b61288f573d8080156127f3576040519150601f19603f3d011682016040523d82523d6000602084013e6127f8565b606091505b508051612887576040517f08c379a000000000000000000000000000000000000000000000000000000000815260206004820152603260248201527f4552433732313a207472616e7366657220746f206e6f6e20455243373231526560448201527f63656976657220696d706c656d656e74657200000000000000000000000000006064820152608401610648565b805181602001fd5b7fffffffff00000000000000000000000000000000000000000000000000000000167f150b7a02000000000000000000000000000000000000000000000000000000001490506116f2565b506001949350505050565b600060016128f284610f40565b6128fc9190613177565b60008381526007602052604090205490915080821461295c5773ffffffffffffffffffffffffffffffffffffffff841660009081526006602090815260408083208584528252808320548484528184208190558352600790915290208190555b50600091825260076020908152604080842084905573ffffffffffffffffffffffffffffffffffffffff9094168352600681528383209183525290812055565b6008546000906129ae90600190613177565b600083815260096020526040812054600880549394509092849081106129d6576129d661318e565b9060005260206000200154905080600883815481106129f7576129f761318e565b6000918252602080832090910192909255828152600990915260408082208490558582528120556008805480612a2f57612a2f61380d565b6001900381819060005260206000200160009055905550505050565b6000612a5683610f40565b73ffffffffffffffffffffffffffffffffffffffff9093166000908152600660209081526040808320868452825280832085905593825260079052919091209190915550565b60606116f28484600085612afe565b60608315612aba575081611d92565b825115612aca5782518084602001fd5b816040517f08c379a00000000000000000000000000000000000000000000000000000000081526004016106489190612d55565b606082471015612b90576040517f08c379a000000000000000000000000000000000000000000000000000000000815260206004820152602660248201527f416464726573733a20696e73756666696369656e742062616c616e636520666f60448201527f722063616c6c00000000000000000000000000000000000000000000000000006064820152608401610648565b73ffffffffffffffffffffffffffffffffffffffff85163b612c0e576040517f08c379a000000000000000000000000000000000000000000000000000000000815260206004820152601d60248201527f416464726573733a2063616c6c20746f206e6f6e2d636f6e74726163740000006044820152606401610648565b6000808673ffffffffffffffffffffffffffffffffffffffff168587604051612c379190613795565b60006040518083038185875af1925050503d8060008114612c74576040519150601f19603f3d011682016040523d82523d6000602084013e612c79565b606091505b5091509150612c89828286612aab565b979650505050505050565b7fffffffff000000000000000000000000000000000000000000000000000000008116811461142957600080fd5b600060208284031215612cd457600080fd5b8135611d9281612c94565b60005b83811015612cfa578181015183820152602001612ce2565b838111156112f05750506000910152565b60008151808452612d23816020860160208601612cdf565b601f017fffffffffffffffffffffffffffffffffffffffffffffffffffffffffffffffe0169290920160200192915050565b602081526000611d926020830184612d0b565b600060208284031215612d7a57600080fd5b5035919050565b803573ffffffffffffffffffffffffffffffffffffffff81168114612da557600080fd5b919050565b60008060408385031215612dbd57600080fd5b612dc683612d81565b946020939093013593505050565b600080600060608486031215612de957600080fd5b612df284612d81565b9250612e0060208501612d81565b9150604084013590509250925092565b600080600060608486031215612e2557600080fd5b612e2e84612d81565b95602085013595506040909401359392505050565b600060208284031215612e5557600080fd5b611d9282612d81565b801515811461142957600080fd5b60008060408385031215612e7f57600080fd5b612e8883612d81565b91506020830135612e9881612e5e565b809150509250929050565b60008060208385031215612eb657600080fd5b823567ffffffffffffffff80821115612ece57600080fd5b818501915085601f830112612ee257600080fd5b813581811115612ef157600080fd5b8660208260051b8501011115612f0657600080fd5b60209290920196919550909350505050565b6000602080830181845280855180835260408601915060408160051b870101925083870160005b82811015612f8b577fffffffffffffffffffffffffffffffffffffffffffffffffffffffffffffffc0888603018452612f79858351612d0b565b94509285019290850190600101612f3f565b5092979650505050505050565b7f4e487b7100000000000000000000000000000000000000000000000000000000600052604160045260246000fd5b60008060008060808587031215612fdd57600080fd5b612fe685612d81565b9350612ff460208601612d81565b925060408501359150606085013567ffffffffffffffff8082111561301857600080fd5b818701915087601f83011261302c57600080fd5b81358181111561303e5761303e612f98565b604051601f82017fffffffffffffffffffffffffffffffffffffffffffffffffffffffffffffffe0908116603f0116810190838211818310171561308457613084612f98565b816040528281528a602084870101111561309d57600080fd5b82602086016020830137600060208483010152809550505050505092959194509250565b600080604083850312156130d457600080fd5b6130dd83612d81565b91506130eb60208401612d81565b90509250929050565b600181811c9082168061310857607f821691505b60208210811415613142577f4e487b7100000000000000000000000000000000000000000000000000000000600052602260045260246000fd5b50919050565b7f4e487b7100000000000000000000000000000000000000000000000000000000600052601160045260246000fd5b60008282101561318957613189613148565b500390565b7f4e487b7100000000000000000000000000000000000000000000000000000000600052603260045260246000fd5b600082198211156131d0576131d0613148565b500190565b6000602082840312156131e757600080fd5b8151611d9281612e5e565b60008083357fffffffffffffffffffffffffffffffffffffffffffffffffffffffffffffffe184360301811261322757600080fd5b83018035915067ffffffffffffffff82111561324257600080fd5b60200191503681900382131561325757600080fd5b9250929050565b60007fffffffffffffffffffffffffffffffffffffffffffffffffffffffffffffffff82141561329057613290613148565b5060010190565b600081516132a9818560208601612cdf565b9290920192915050565b7f7b0000000000000000000000000000000000000000000000000000000000000081527f226e616d65223a20224f5054494f4e2023000000000000000000000000000000600182015260008451613311816012850160208901612cdf565b7f222c2000000000000000000000000000000000000000000000000000000000006012918401918201527f226465736372697074696f6e223a202250414e4745412056455354494e47205360158201527f544f4e452e2074686973204e465420726570726573656e747320746865206c6f60358201527f636b65642d757020676f7665726e616e636520746f6b656e222c00000000000060558201527f22696d616765223a2022646174613a696d6167652f7376672b786d6c3b626173606f8201527f6536342c00000000000000000000000000000000000000000000000000000000608f820152845161340c816093840160208901612cdf565b612c896134766134706134476093858701017f222c000000000000000000000000000000000000000000000000000000000000815260020190565b7f2261747472696275746573223a200000000000000000000000000000000000008152600e0190565b87613297565b7f7d00000000000000000000000000000000000000000000000000000000000000815260010190565b7f646174613a6170706c69636174696f6e2f6a736f6e3b6261736536342c0000008152600082516134d781601d850160208701612cdf565b91909101601d0192915050565b7f4e487b7100000000000000000000000000000000000000000000000000000000600052601260045260246000fd5b600082613522576135226134e4565b500490565b6000817fffffffffffffffffffffffffffffffffffffffffffffffffffffffffffffffff048311821515161561355f5761355f613148565b500290565b600082613573576135736134e4565b500690565b6000835161358a818460208801612cdf565b7f2e0000000000000000000000000000000000000000000000000000000000000090830190815283516135c4816001840160208801612cdf565b01600101949350505050565b7f5b0000000000000000000000000000000000000000000000000000000000000081527f7b22646973706c61795f74797065223a20226e756d626572222c20226d61785f60018201527f76616c7565223a31303030303030302c202274726169745f74797065223a226c60218201527f6f636b6564416d6f756e74222c2276616c7565223a000000000000000000000060418201526000845161367a816056850160208901612cdf565b80830190507f7d000000000000000000000000000000000000000000000000000000000000008060568301527f2c7b22646973706c61795f74797065223a202264617465222c2022747261697460578301527f5f74797065223a2265787069726174696f6e54696d65222c2276616c7565223a60778301528551613705816097850160208a01612cdf565b60979201918201526126dc61376c613476613470609885017f2c7b22646973706c61795f74797065223a202264617465222c2022747261697481527f5f74797065223a226372656174696f6e54696d65222c2276616c7565223a00006020820152603e0190565b7f5d00000000000000000000000000000000000000000000000000000000000000815260010190565b600082516137a7818460208701612cdf565b9190910192915050565b600073ffffffffffffffffffffffffffffffffffffffff8087168352808616602084015250836040830152608060608301526126dc6080830184612d0b565b60006020828403121561380257600080fd5b8151611d9281612c94565b7f4e487b7100000000000000000000000000000000000000000000000000000000600052603160045260246000fdfe3c73766720786d6c6e733d22687474703a2f2f7777772e77332e6f72672f323030302f737667222077696474683d2232363422206865696768743d22323634222076657273696f6e3d22312e3122203e203c696d61676520687265663d22646174613a696d6167652f706e673b6261736536342c6956424f5277304b47676f414141414e53556845556741414151674141414549434159414141436a396d722f414141414358424957584d41414173544141414c457745416d7077594141414141584e535230494172733463365141414141526e51553142414143786a7776385951554141413349535552425648674237647a4c6a687a4a656358784c79496a36394c644c46354748416f6555523549676948594f362f734e2f4453437a2b6233386e65474a41687935355a794a36523530494f6830503272616f794d304952545547722f69536f5467684443503866554e77304b68675a45586d716170456e68482f3531324c334b454d776179394a734c696f59356a6c6f6f39524c3862616643523148764675484857595a4b70535a324a334c305577655533755a4a4f3149597070537247676a744668476b326f45314658747051654d326c4f33782f316841483443305a41414841524541426342415141467745427745564141484152454142634241514146774542774556414148415245414263424151414677454277455641414841524541426342415141567971446b7846646f714e59376a534f4c6c735178306e42624e65684843586e72616c7579326a48497062586c476968394e6967446d74533536487563676a765876706b544e6171686651756e6e4a5867714d3766534b705336485148784a3674654b6f69716c4230317143526c744d6c594e2b4167386c767a7545326b77366a4e464c3235734f682f4850665a372f4a4f2f4c5a453666427a3878414c67494341417541674b416934414134434967414c67494341417541674b416934414134434967414c67494341417541674b416934414134434967414c67494341417541674b41792b2b44654b2b65713963374a5661323243423255327a72504a3532364c66597259366d6169504d59724e4a4b6447576f766462664c65497854585656314f304b5975484c72524b4948312f2b6c533046486d67506c656a53653958454e7776334e3049326c4a74776d787238596261315844346159667658442f6654715a4b773251784a464e4d4a64672b367a66334c77393651395a5657646c724d6174612b564a51443354352f542f694d4556754d4c75376d68345657664830513874504441417541674b416934414134434967414c67494341417541674b416934414134434967414c67494341417541674b416934414134434967414c67494341417541674b4169344141344e494b4266366f307156344a7251482f64566e363874646e34676b746f7670554269544f717a4a4a7561376a67764648494e746739615230547a4f6f366e43667158334a3754436d4435744c3130474b654837726e76522f586b44497254536a494f7068684c6b2b334a564e333074666d464b64524b35772b4835596449507a6a2f73337468504e6c6f7a56586f77322b715a766a2b2f2b4d32487076712f542f374b2f754e534b35357066544e7a6a792f46656d622b4c75725577784b7354317164666b483878414467496941417541674941433443416f434c67414467496941417541674941433443416f434c67414467496941417541674941433443416f434c67414467496941417541674941433443416f417242664e61695972653846506147487268786362304e71684e4b347752343341646f71314d4c3374354d6d68464c3830323769334757354d38326c6e3575352b5a36736e79316c53372f782f73775548626f454f4f64706e567a37793276783061597a6f4d63646553314b47564b67673157386d376b74416a494b7a4c396431466a4c72745178316b4d4d31677636756445363136624871732b795a577a746c3274504c776f616c576d3274546a554f30464c57316e646f2f7555654c553565373233516471685a462f4d514134434967414c67494341417541674b416934414134434967414c67494341417541674b416934414134434967414c67494341417541674b416934414134434967414c6749434143757441744f48385464592b673979687a30352b4a33645235716b6a32704633517544764b676a7645386968304d3155645a4c3169787737573974723070387565766244352b61716f586e33317271753262795a34644e715a3448625a324752365a4b73634f6652436855783945682b34515a59533038386f7851702b796c394b684f4f4e523041506967316a75626e444677374459383047374b5a75506c6a656d756a7265327573796d574c2f396d6a586e2b687a655847344d6458324a747548737859516558686958363476544848584a785537334e7739656c374339317357302f41544134434c67414467496941417541674941433443416f434c67414467496941417541674941433443416f434c67414467496941417541674941433443416f434c6741446749694141754e4c6f50584e654f6e5665644867776667785a54724b565a567356625337724d4e756d36495578633463314f6552692b306e626f4a7335324f5853595a4f6a2f6a6b5479324b68766852444f567063394c364f5a566962716f5442644731767674394f69505278754c39304a4e6267474d53357464364e46505444383644656c45466371412f6e7665327956724479672b466f2f7868656d2b714c6f682b655437384f39754a61472b6456696662726e457a317a33397a6271724e6d79753732462b6159703966326450354d314d7363575866376e3575716d6e7a79456f645331474d77686741377a4543416f434c67414467496941417541674941433443416f434c67414467496941417541674941433443416f434c67414467496941417541674941433443416f434c6741446749694141754e4c5465482b4a797361797265744c30635a34457253536c7561767935556c73513371575a70745a31706a30666f383267382f306b70416d6e2f2f5433314e666e6c643749754474696237554f7736614876632f4f70726659776637344c3936494857627658726d32417658346c7a7958743763506b2f70726f35504c5135614755382b38316a7531302f4d6b554a7761613473564f6c77616d6347367a594b4462617050722b54596344654661574f6864746e504d7732376c34506576362f6a547144557a5430714e7972683467635a6970586f2b2b4f33576357622b65375372594f6d6b424d6362326c56696453374251394142502b564348306c59335a72314a72516c436479512f4d514334434167414c67494367497541414f416949414334434167414c67494367497541414f416949414334434167414c67494367497541414f416949414334434167414c674943674374746e65664e7a3279787263326d754c427350777261474d31504877596267395956634c354f746871315a2b766a4547796174486b3053394a4c5a316162757235694e63565567756e74466d61766a6e7172784d666e7852346c62582f65786d4a627356696f7666746d316f71466d72462b396735684d455549693633796c536c795450623234736432716e52572f49413474364d70486f5a697a364d6545442f5a315274434c424d707532686c71343278314f57346671336644484e616d327064412f4e694e4d6d783776327736446644747a663647492f727a664263444969584c5344453172445735584f745830344e336977567454546a636d586c6f48334a583461313763382b7446507845774f416934414134434967414c67494341417541674b416934414134434967414c67494341417541674b416934414134434967414c67494341417541674b416934414134434967414c68534b50632f2f42374b62454638746e364970663448656e394343467050514a507245446c727a2b667635324b76396961374e623130706a56315a48465a576856494b6670633071422f7a6978314d704e3651566273664e444f573576435659663961624d6f596e6c4e444545656f37312f76662f4f54705843386672655077773149416162544c464b785235753966614e556d65697873782b726c647a3044622b56563271662f746144367376396379306d7a6f4e6258667154566b4463316e306d2f7438757a4856766e3551765257627156593232382b3232686a484770694857577a697161344f78787034326c784376626c443050616e7a4c6557767636466e597166474142634241514146774542774556414148415245414263424151414677454277455641414841524541426342415141467745427745564141484152454142634241514146774542774556414148436c36584231377838324b64757a704256653741617a5964414c567637337937307459736e4b663830622b7971765444484661432f79316c513355632f6c59544e6147675a54354e593256505439306675587a44374a422f74634c46683566446261507a3352796c3675706d4a767670684e3954707362424c5037434576395357577a74536a747436657669624a71375271625461446159656e765439304f443348755667573638687536385a667a746f595537325777366a6633435632574a533673464564703779726e5873664c4b334a5361792f612b74786c725178327532594f6d7a50454674686f7a5a514b4c6c4c2b4162686e5041544134434c67414467496941417541674941433443416f434c67414467496941417541674941433443416f434c67414467496941417541674941433443416f434c6741446749694141754e4c6a346635796a422b6b624539487261776968574933423745316f2f726b4d4e695574537a3776417a324b6d67464b36334859656f517161764e326c5278694262457770686f78574b48516f67656e524c48656a327a32442f794d6d62373732557978567776356d38663653304d6e333433323832736e6630337562524746644d455734326e6e376430467537666c4c4f36324264784d555537674d644647364e354d5365377a64704366566476376975785943574559454f48426f38304a705056755a5367586b38723964486c72432f4b55734e6250536c586c753072635336706e746e6e5779316b6d706458633276424d635768766d354d30315a6a46552f665a5835694148415245414263424151414677454277455641414841524541426342415141467745427745564141484152454142634241514146774542774556414148415245414263424151415633727356424f6344363072514875657666554e4c4233364532357966596c6c41636657425348325162543368396a68676a6f4d3061704969746a5545757237343376794564476a477157747953522b357055367974756739335845636246313051706a746a626268546847367a435a68484f532f7637692f6a635064574b706148666c56486638736b5044796d65484f7335736b6948566d337651446b3972635272586f366c36684f59387a3559583766414d4e65785753552b4970554e6854497a5231474b715134325966564572634162374a71354d7464766432744f7333542b376d317437566c2b4b46673666486f35324b6e356941484152454142634241514146774542774556414148415245414263424151414677454277455641414841524541426342415141467745427745564141484152454142634241514146774542774a552b7637322f6b474c4a785a5a46712f433458494c39366c62506f4a767a585774724d6357774753306c72536d6f4e546a64484d586d6d6d6f735053716c537075514b65624637486f76566e565651394448554e75786d6a534f74743575544e486d635a776d55333354696d7543646d613375343174486e3967696d465a374f4f58333971702b41594277455641414841524541426342415141467745427745564141484152454142634241514146774542774556414148415245414263424151414677454277455641414841524541426342415141562f724e744c72334432397a744d7573465a766b4f4e6a31786470554a513057676a615845474e396955557470535a713173746570735042564f2f36597253536c5a4a624d5a444a686b45664a4556396a334e6536746f655464486d734270485530337a564f656a3763395535784c557a2f423635736350487475703075766c2f74616262334b796234725777425444594b764e316d52465034447437415835337534796943327a3373413039776949306d567061323771677777747745316232394a613047617438617439694777324b314e4e5337415374503170703054744c3276584d35796466672f7945774f416934414134434967414c67494341417541674b416934414134434967414c67494341417541674b416934414134434967414c67494341417541674b416934414134434967414c6a535a62362f4432496552687554396c78386e7734477379486f4f6661756a4551736e626c373652656b74515430485358302b496a6f73636e5759777954533172614c484b48666f753767694c545a6247776f383068436438443073766c2f6842496d3431747a7257796c315a6f6b724f2b324750555433474d67305878494c656a46364a2b5938355a4c347a7049635967747a67317055745774586c6f2b397a43515132496474546d52613170615a6b5a4c5132444b637179324b7757344e5439586139506e77632f4d514334434167414c674943674f7533724671757944324c36576f41414141415355564f524b35435949493d222077696474683d2232363422206865696768743d22323634222f3e203c2f7376673e4142434445464748494a4b4c4d4e4f505152535455565758595a6162636465666768696a6b6c6d6e6f707172737475767778797a303132333435363738392b2f416464726573733a206c6f772d6c6576656c2064656c65676174652063616c6c206661696c6564a264697066735822122093fb5021d76e1cb87bc4b65562092901e25a89ce59d2b11ddb46726b05ddfbc564736f6c63430008090033",
  "devdoc": {
    "kind": "dev",
    "methods": {
      "approve(address,uint256)": {
        "details": "See {IERC721-approve}."
      },
      "balanceOf(address)": {
        "details": "See {IERC721-balanceOf}."
      },
      "exerciseOption(address,uint256)": {
        "params": {
          "optionId": "token ID of option to exercise",
          "to": "account to receive"
        }
      },
      "getApproved(uint256)": {
        "details": "See {IERC721-getApproved}."
      },
      "grantOption(address,uint256,uint256)": {
        "params": {
          "amount": "Amount of STONE to receive after expiration",
          "expirationTime": "option Expiration Time",
          "to": "address to receive STONE option NFT"
        }
      },
      "isApprovedForAll(address,address)": {
        "details": "See {IERC721-isApprovedForAll}."
      },
      "mergeOption(address,uint256,uint256)": {
        "details": "if the expirationTime of `from` option is longer than `to` Option, it should be reverted",
        "params": {
          "fromOptionId": "token ID of option to burn",
          "to": "account to receive new STONE Option",
          "toOptionId": "token ID of option to be merged"
        }
      },
      "multicall(bytes[])": {
        "details": "Receives and executes a batch of function calls on this contract."
      },
      "name()": {
        "details": "See {IERC721Metadata-name}."
      },
      "owner()": {
        "details": "Returns the address of the current owner."
      },
      "ownerOf(uint256)": {
        "details": "See {IERC721-ownerOf}."
      },
      "renounceOwnership()": {
        "details": "Leaves the contract without owner. It will not be possible to call `onlyOwner` functions anymore. Can only be called by the current owner. NOTE: Renouncing ownership will leave the contract without an owner, thereby removing any functionality that is only available to the owner."
      },
      "safeTransferFrom(address,address,uint256)": {
        "details": "See {IERC721-safeTransferFrom}."
      },
      "safeTransferFrom(address,address,uint256,bytes)": {
        "details": "See {IERC721-safeTransferFrom}."
      },
      "setApprovalForAll(address,bool)": {
        "details": "See {IERC721-setApprovalForAll}."
      },
      "splitOption(address,uint256,uint256)": {
        "params": {
          "amount": "The amount of stones to be given to the new STONE option",
          "optionId": "token ID of option",
          "to": "account to receive new STONE Option"
        }
      },
      "supportsInterface(bytes4)": {
        "details": "See {IERC165-supportsInterface}."
      },
      "symbol()": {
        "details": "See {IERC721Metadata-symbol}."
      },
      "tokenByIndex(uint256)": {
        "details": "See {IERC721Enumerable-tokenByIndex}."
      },
      "tokenOfOwnerByIndex(address,uint256)": {
        "details": "See {IERC721Enumerable-tokenOfOwnerByIndex}."
      },
      "tokenURI(uint256)": {
        "details": "See {IERC721Metadata-tokenURI}."
      },
      "totalSupply()": {
        "details": "See {IERC721Enumerable-totalSupply}."
      },
      "transferFrom(address,address,uint256)": {
        "details": "See {IERC721-transferFrom}."
      },
      "transferOwnership(address)": {
        "details": "Transfers ownership of the contract to a new account (`newOwner`). Can only be called by the current owner."
      }
    },
    "stateVariables": {
      "option": {
        "details": "option information per optionId"
      }
    },
    "version": 1
  },
  "userdoc": {
    "kind": "user",
    "methods": {
      "exerciseOption(address,uint256)": {
        "notice": "exercise option to receive STONE"
      },
      "grantOption(address,uint256,uint256)": {
        "notice": "grant STONE option. It can be received after the expiration time. (technically it means `mint OPTION NFT`)"
      },
      "mergeOption(address,uint256,uint256)": {
        "notice": "merge the quantities of the two STONE option and burn `from` STONE option"
      },
      "splitOption(address,uint256,uint256)": {
        "notice": "create new STONE option by splitting from the existing STONE option"
      }
    },
    "notice": "Vesting Locked-Up Governance Token Contract",
    "version": 1
  },
  "storageLayout": {
    "storage": [
      {
        "astId": 3666,
        "contract": "contracts/VestingStone.sol:VestingStone",
        "label": "_name",
        "offset": 0,
        "slot": "0",
        "type": "t_string_storage"
      },
      {
        "astId": 3668,
        "contract": "contracts/VestingStone.sol:VestingStone",
        "label": "_symbol",
        "offset": 0,
        "slot": "1",
        "type": "t_string_storage"
      },
      {
        "astId": 3672,
        "contract": "contracts/VestingStone.sol:VestingStone",
        "label": "_owners",
        "offset": 0,
        "slot": "2",
        "type": "t_mapping(t_uint256,t_address)"
      },
      {
        "astId": 3676,
        "contract": "contracts/VestingStone.sol:VestingStone",
        "label": "_balances",
        "offset": 0,
        "slot": "3",
        "type": "t_mapping(t_address,t_uint256)"
      },
      {
        "astId": 3680,
        "contract": "contracts/VestingStone.sol:VestingStone",
        "label": "_tokenApprovals",
        "offset": 0,
        "slot": "4",
        "type": "t_mapping(t_uint256,t_address)"
      },
      {
        "astId": 3686,
        "contract": "contracts/VestingStone.sol:VestingStone",
        "label": "_operatorApprovals",
        "offset": 0,
        "slot": "5",
        "type": "t_mapping(t_address,t_mapping(t_address,t_bool))"
      },
      {
        "astId": 4656,
        "contract": "contracts/VestingStone.sol:VestingStone",
        "label": "_ownedTokens",
        "offset": 0,
        "slot": "6",
        "type": "t_mapping(t_address,t_mapping(t_uint256,t_uint256))"
      },
      {
        "astId": 4660,
        "contract": "contracts/VestingStone.sol:VestingStone",
        "label": "_ownedTokensIndex",
        "offset": 0,
        "slot": "7",
        "type": "t_mapping(t_uint256,t_uint256)"
      },
      {
        "astId": 4663,
        "contract": "contracts/VestingStone.sol:VestingStone",
        "label": "_allTokens",
        "offset": 0,
        "slot": "8",
        "type": "t_array(t_uint256)dyn_storage"
      },
      {
        "astId": 4667,
        "contract": "contracts/VestingStone.sol:VestingStone",
        "label": "_allTokensIndex",
        "offset": 0,
        "slot": "9",
        "type": "t_mapping(t_uint256,t_uint256)"
      },
      {
        "astId": 7,
        "contract": "contracts/VestingStone.sol:VestingStone",
        "label": "_owner",
        "offset": 0,
        "slot": "10",
        "type": "t_address"
      },
      {
        "astId": 9594,
        "contract": "contracts/VestingStone.sol:VestingStone",
        "label": "option",
        "offset": 0,
        "slot": "11",
        "type": "t_mapping(t_uint256,t_struct(Option)10127_storage)"
      },
      {
        "astId": 9596,
        "contract": "contracts/VestingStone.sol:VestingStone",
        "label": "_tokenId",
        "offset": 0,
        "slot": "12",
        "type": "t_uint256"
      }
    ],
    "types": {
      "t_address": {
        "encoding": "inplace",
        "label": "address",
        "numberOfBytes": "20"
      },
      "t_array(t_uint256)dyn_storage": {
        "base": "t_uint256",
        "encoding": "dynamic_array",
        "label": "uint256[]",
        "numberOfBytes": "32"
      },
      "t_bool": {
        "encoding": "inplace",
        "label": "bool",
        "numberOfBytes": "1"
      },
      "t_mapping(t_address,t_bool)": {
        "encoding": "mapping",
        "key": "t_address",
        "label": "mapping(address => bool)",
        "numberOfBytes": "32",
        "value": "t_bool"
      },
      "t_mapping(t_address,t_mapping(t_address,t_bool))": {
        "encoding": "mapping",
        "key": "t_address",
        "label": "mapping(address => mapping(address => bool))",
        "numberOfBytes": "32",
        "value": "t_mapping(t_address,t_bool)"
      },
      "t_mapping(t_address,t_mapping(t_uint256,t_uint256))": {
        "encoding": "mapping",
        "key": "t_address",
        "label": "mapping(address => mapping(uint256 => uint256))",
        "numberOfBytes": "32",
        "value": "t_mapping(t_uint256,t_uint256)"
      },
      "t_mapping(t_address,t_uint256)": {
        "encoding": "mapping",
        "key": "t_address",
        "label": "mapping(address => uint256)",
        "numberOfBytes": "32",
        "value": "t_uint256"
      },
      "t_mapping(t_uint256,t_address)": {
        "encoding": "mapping",
        "key": "t_uint256",
        "label": "mapping(uint256 => address)",
        "numberOfBytes": "32",
        "value": "t_address"
      },
      "t_mapping(t_uint256,t_struct(Option)10127_storage)": {
        "encoding": "mapping",
        "key": "t_uint256",
        "label": "mapping(uint256 => struct IVestingStoneStruct.Option)",
        "numberOfBytes": "32",
        "value": "t_struct(Option)10127_storage"
      },
      "t_mapping(t_uint256,t_uint256)": {
        "encoding": "mapping",
        "key": "t_uint256",
        "label": "mapping(uint256 => uint256)",
        "numberOfBytes": "32",
        "value": "t_uint256"
      },
      "t_string_storage": {
        "encoding": "bytes",
        "label": "string",
        "numberOfBytes": "32"
      },
      "t_struct(Option)10127_storage": {
        "encoding": "inplace",
        "label": "struct IVestingStoneStruct.Option",
        "members": [
          {
            "astId": 10120,
            "contract": "contracts/VestingStone.sol:VestingStone",
            "label": "amount",
            "offset": 0,
            "slot": "0",
            "type": "t_uint256"
          },
          {
            "astId": 10123,
            "contract": "contracts/VestingStone.sol:VestingStone",
            "label": "creationTime",
            "offset": 0,
            "slot": "1",
            "type": "t_uint256"
          },
          {
            "astId": 10126,
            "contract": "contracts/VestingStone.sol:VestingStone",
            "label": "expirationTime",
            "offset": 0,
            "slot": "2",
            "type": "t_uint256"
          }
        ],
        "numberOfBytes": "96"
      },
      "t_uint256": {
        "encoding": "inplace",
        "label": "uint256",
        "numberOfBytes": "32"
      }
    }
  }
}